{
  "_format": "hh-sol-artifact-1",
  "contractName": "RoleManager",
  "sourceName": "contracts/RoleManager.sol",
  "abi": [
    {
      "inputs": [
        {
          "internalType": "address",
          "name": "initialCountryAdmin",
          "type": "address"
        }
      ],
      "stateMutability": "nonpayable",
      "type": "constructor"
    },
    {
      "inputs": [],
      "name": "AccessControlBadConfirmation",
      "type": "error"
    },
    {
      "inputs": [
        {
          "internalType": "address",
          "name": "account",
          "type": "address"
        },
        {
          "internalType": "bytes32",
          "name": "neededRole",
          "type": "bytes32"
        }
      ],
      "name": "AccessControlUnauthorizedAccount",
      "type": "error"
    },
    {
      "anonymous": false,
      "inputs": [
        {
          "indexed": true,
          "internalType": "bytes32",
          "name": "role",
          "type": "bytes32"
        },
        {
          "indexed": true,
          "internalType": "bytes32",
          "name": "previousAdminRole",
          "type": "bytes32"
        },
        {
          "indexed": true,
          "internalType": "bytes32",
          "name": "newAdminRole",
          "type": "bytes32"
        }
      ],
      "name": "RoleAdminChanged",
      "type": "event"
    },
    {
      "anonymous": false,
      "inputs": [
        {
          "indexed": true,
          "internalType": "address",
          "name": "account",
          "type": "address"
        },
        {
          "indexed": true,
          "internalType": "bytes32",
          "name": "role",
          "type": "bytes32"
        },
        {
          "indexed": true,
          "internalType": "address",
          "name": "approver",
          "type": "address"
        }
      ],
      "name": "RoleApproved",
      "type": "event"
    },
    {
      "anonymous": false,
      "inputs": [
        {
          "indexed": true,
          "internalType": "bytes32",
          "name": "role",
          "type": "bytes32"
        },
        {
          "indexed": true,
          "internalType": "address",
          "name": "account",
          "type": "address"
        },
        {
          "indexed": true,
          "internalType": "address",
          "name": "sender",
          "type": "address"
        }
      ],
      "name": "RoleGranted",
      "type": "event"
    },
    {
      "anonymous": false,
      "inputs": [
        {
          "indexed": true,
          "internalType": "address",
          "name": "account",
          "type": "address"
        },
        {
          "indexed": true,
          "internalType": "bytes32",
          "name": "role",
          "type": "bytes32"
        }
      ],
      "name": "RoleRequested",
      "type": "event"
    },
    {
      "anonymous": false,
      "inputs": [
        {
          "indexed": true,
          "internalType": "bytes32",
          "name": "role",
          "type": "bytes32"
        },
        {
          "indexed": true,
          "internalType": "address",
          "name": "account",
          "type": "address"
        },
        {
          "indexed": true,
          "internalType": "address",
          "name": "sender",
          "type": "address"
        }
      ],
      "name": "RoleRevoked",
      "type": "event"
    },
    {
      "inputs": [],
      "name": "AUDITOR_ROLE",
      "outputs": [
        {
          "internalType": "bytes32",
          "name": "",
          "type": "bytes32"
        }
      ],
      "stateMutability": "view",
      "type": "function"
    },
    {
      "inputs": [],
      "name": "BUYER_ROLE",
      "outputs": [
        {
          "internalType": "bytes32",
          "name": "",
          "type": "bytes32"
        }
      ],
      "stateMutability": "view",
      "type": "function"
    },
    {
      "inputs": [],
      "name": "CITY_ADMIN_ROLE",
      "outputs": [
        {
          "internalType": "bytes32",
          "name": "",
          "type": "bytes32"
        }
      ],
      "stateMutability": "view",
      "type": "function"
    },
    {
      "inputs": [],
      "name": "COUNTRY_ADMIN_ROLE",
      "outputs": [
        {
          "internalType": "bytes32",
          "name": "",
          "type": "bytes32"
        }
      ],
      "stateMutability": "view",
      "type": "function"
    },
    {
      "inputs": [],
      "name": "DEFAULT_ADMIN_ROLE",
      "outputs": [
        {
          "internalType": "bytes32",
          "name": "",
          "type": "bytes32"
        }
      ],
      "stateMutability": "view",
      "type": "function"
    },
    {
      "inputs": [],
      "name": "PRODUCER_ROLE",
      "outputs": [
        {
          "internalType": "bytes32",
          "name": "",
          "type": "bytes32"
        }
      ],
      "stateMutability": "view",
      "type": "function"
    },
    {
      "inputs": [],
      "name": "STATE_ADMIN_ROLE",
      "outputs": [
        {
          "internalType": "bytes32",
          "name": "",
          "type": "bytes32"
        }
      ],
      "stateMutability": "view",
      "type": "function"
    },
    {
      "inputs": [
        {
          "internalType": "address",
          "name": "account",
          "type": "address"
        }
      ],
      "name": "approveAuditor",
      "outputs": [],
      "stateMutability": "nonpayable",
      "type": "function"
    },
    {
      "inputs": [
        {
          "internalType": "address",
          "name": "account",
          "type": "address"
        }
      ],
      "name": "approveBuyer",
      "outputs": [],
      "stateMutability": "nonpayable",
      "type": "function"
    },
    {
      "inputs": [
        {
          "internalType": "address",
          "name": "account",
          "type": "address"
        }
      ],
      "name": "approveCityAdmin",
      "outputs": [],
      "stateMutability": "nonpayable",
      "type": "function"
    },
    {
      "inputs": [
        {
          "internalType": "address",
          "name": "account",
          "type": "address"
        }
      ],
      "name": "approveProducer",
      "outputs": [],
      "stateMutability": "nonpayable",
      "type": "function"
    },
    {
      "inputs": [
        {
          "internalType": "address",
          "name": "account",
          "type": "address"
        }
      ],
      "name": "approveStateAdmin",
      "outputs": [],
      "stateMutability": "nonpayable",
      "type": "function"
    },
    {
      "inputs": [
        {
          "internalType": "bytes32",
          "name": "role",
          "type": "bytes32"
        }
      ],
      "name": "getRoleAdmin",
      "outputs": [
        {
          "internalType": "bytes32",
          "name": "",
          "type": "bytes32"
        }
      ],
      "stateMutability": "view",
      "type": "function"
    },
    {
      "inputs": [
        {
          "internalType": "bytes32",
          "name": "role",
          "type": "bytes32"
        },
        {
          "internalType": "address",
          "name": "account",
          "type": "address"
        }
      ],
      "name": "grantRole",
      "outputs": [],
      "stateMutability": "nonpayable",
      "type": "function"
    },
    {
      "inputs": [
        {
          "internalType": "bytes32",
          "name": "role",
          "type": "bytes32"
        },
        {
          "internalType": "address",
          "name": "account",
          "type": "address"
        }
      ],
      "name": "hasRole",
      "outputs": [
        {
          "internalType": "bool",
          "name": "",
          "type": "bool"
        }
      ],
      "stateMutability": "view",
      "type": "function"
    },
    {
      "inputs": [
        {
          "internalType": "address",
          "name": "account",
          "type": "address"
        }
      ],
      "name": "isAdmin",
      "outputs": [
        {
          "internalType": "bool",
          "name": "",
          "type": "bool"
        }
      ],
      "stateMutability": "view",
      "type": "function"
    },
    {
      "inputs": [
        {
          "internalType": "address",
          "name": "account",
          "type": "address"
        }
      ],
      "name": "isCityAdmin",
      "outputs": [
        {
          "internalType": "bool",
          "name": "",
          "type": "bool"
        }
      ],
      "stateMutability": "view",
      "type": "function"
    },
    {
      "inputs": [
        {
          "internalType": "address",
          "name": "account",
          "type": "address"
        }
      ],
      "name": "isProducer",
      "outputs": [
        {
          "internalType": "bool",
          "name": "",
          "type": "bool"
        }
      ],
      "stateMutability": "view",
      "type": "function"
    },
    {
      "inputs": [
        {
          "internalType": "bytes32",
          "name": "role",
          "type": "bytes32"
        },
        {
          "internalType": "address",
          "name": "callerConfirmation",
          "type": "address"
        }
      ],
      "name": "renounceRole",
      "outputs": [],
      "stateMutability": "nonpayable",
      "type": "function"
    },
    {
      "inputs": [
        {
          "internalType": "bytes32",
          "name": "role",
          "type": "bytes32"
        }
      ],
      "name": "requestRole",
      "outputs": [],
      "stateMutability": "nonpayable",
      "type": "function"
    },
    {
      "inputs": [
        {
          "internalType": "bytes32",
          "name": "role",
          "type": "bytes32"
        },
        {
          "internalType": "address",
          "name": "account",
          "type": "address"
        }
      ],
      "name": "revokeRole",
      "outputs": [],
      "stateMutability": "nonpayable",
      "type": "function"
    },
    {
      "inputs": [
        {
          "internalType": "bytes4",
          "name": "interfaceId",
          "type": "bytes4"
        }
      ],
      "name": "supportsInterface",
      "outputs": [
        {
          "internalType": "bool",
          "name": "",
          "type": "bool"
        }
      ],
      "stateMutability": "view",
      "type": "function"
    }
  ],
  "bytecode": "0x608060405234801561001057600080fd5b50604051610c32380380610c3283398101604081905261002f91610118565b61003a60008261006c565b506100657f1bc8204651e2978ba6ed20f8dce4504b670f5d59911d2bb62450e395b7399da68261006c565b5050610148565b6000828152602081815260408083206001600160a01b038516845290915281205460ff1661010e576000838152602081815260408083206001600160a01b03861684529091529020805460ff191660011790556100c63390565b6001600160a01b0316826001600160a01b0316847f2f8788117e7eff1d82e926ec794901d17c78024a50270940304540a733656f0d60405160405180910390a4506001610112565b5060005b92915050565b60006020828403121561012a57600080fd5b81516001600160a01b038116811461014157600080fd5b9392505050565b610adb806101576000396000f3fe608060405234801561001057600080fd5b50600436106101425760003560e01c8063a5f523d4116100b8578063e28538071161007c578063e2853807146102cf578063e668ad05146102e2578063e6e9c8d8146102f5578063f55210221461030a578063f72ea4081461031d578063f9ab88bd1461033057600080fd5b8063a5f523d41461026c578063a956253a1461027f578063bab619f714610294578063cb3e1fe7146102a7578063d547741f146102bc57600080fd5b806336568abe1161010a57806336568abe146101dd5780636e1d616e146101f05780637a01a1da14610217578063902a82111461023e57806391d1485414610251578063a217fddf1461026457600080fd5b806301ffc9a714610147578063081045a41461016f578063248a9ca31461019257806324d7806c146101b55780632f2ff15d146101c8575b600080fd5b61015a610155366004610958565b610343565b60405190151581526020015b60405180910390f35b610184600080516020610a6683398151915281565b604051908152602001610166565b6101846101a0366004610989565b60009081526020819052604090206001015490565b61015a6101c33660046109be565b61037a565b6101db6101d63660046109d9565b6103d0565b005b6101db6101eb3660046109d9565b6103fb565b6101847fd8994f6d76f930dc5ea8c60e38e6334a87bb8539cc3082ac6828681c33316e3d81565b6101847feeccd0cdb44235955432f589255f62b95683f64165b40b022d338b8009cf79b681565b6101db61024c3660046109be565b610433565b61015a61025f3660046109d9565b6104c0565b610184600081565b6101db61027a3660046109be565b6104e9565b610184600080516020610a4683398151915281565b61015a6102a23660046109be565b6105f3565b610184600080516020610a2683398151915281565b6101db6102ca3660046109d9565b61060d565b6101db6102dd3660046109be565b610632565b6101db6102f0366004610989565b61069b565b610184600080516020610a8683398151915281565b61015a6103183660046109be565b6106cb565b6101db61032b3660046109be565b6106e5565b6101db61033e3660046109be565b61074e565b60006001600160e01b03198216637965db0b60e01b148061037457506301ffc9a760e01b6001600160e01b03198316145b92915050565b6000610394600080516020610a66833981519152836104c0565b806103b257506103b2600080516020610a46833981519152836104c0565b806103745750610374600080516020610a86833981519152836104c0565b6000828152602081905260409020600101546103eb81610811565b6103f5838361081e565b50505050565b6001600160a01b03811633146104245760405163334bd91960e11b815260040160405180910390fd5b61042e82826108b0565b505050565b600080516020610a6683398151915261044b81610811565b6104757fd8994f6d76f930dc5ea8c60e38e6334a87bb8539cc3082ac6828681c33316e3d8361081e565b5060405133907fd8994f6d76f930dc5ea8c60e38e6334a87bb8539cc3082ac6828681c33316e3d906001600160a01b03851690600080516020610a0683398151915290600090a45050565b6000918252602082815260408084206001600160a01b0393909316845291905290205460ff1690565b610501600080516020610a86833981519152336104c0565b8061051f575061051f600080516020610a46833981519152336104c0565b8061053d575061053d600080516020610a66833981519152336104c0565b61057f5760405162461bcd60e51b815260206004820152600e60248201526d139bdd08185d5d1a1bdc9a5e995960921b60448201526064015b60405180910390fd5b6105a97feeccd0cdb44235955432f589255f62b95683f64165b40b022d338b8009cf79b68261081e565b5060405133907feeccd0cdb44235955432f589255f62b95683f64165b40b022d338b8009cf79b6906001600160a01b03841690600080516020610a0683398151915290600090a450565b6000610374600080516020610a86833981519152836104c0565b60008281526020819052604090206001015461062881610811565b6103f583836108b0565b600080516020610a6683398151915261064a81610811565b610662600080516020610a468339815191528361081e565b506040513390600080516020610a46833981519152906001600160a01b03851690600080516020610a0683398151915290600090a45050565b604051819033907f2c5d566a9ea3fa5f9d93d90fcbfad5dbc454cf7907a3994e129541ceff4f1c2290600090a350565b6000610374600080516020610a26833981519152836104c0565b600080516020610a868339815191526106fd81610811565b610715600080516020610a268339815191528361081e565b506040513390600080516020610a26833981519152906001600160a01b03851690600080516020610a0683398151915290600090a45050565b610766600080516020610a46833981519152336104c0565b806107845750610784600080516020610a66833981519152336104c0565b6107c15760405162461bcd60e51b815260206004820152600e60248201526d139bdd08185d5d1a1bdc9a5e995960921b6044820152606401610576565b6107d9600080516020610a868339815191528261081e565b506040513390600080516020610a86833981519152906001600160a01b03841690600080516020610a0683398151915290600090a450565b61081b813361091b565b50565b600061082a83836104c0565b6108a8576000838152602081815260408083206001600160a01b03861684529091529020805460ff191660011790556108603390565b6001600160a01b0316826001600160a01b0316847f2f8788117e7eff1d82e926ec794901d17c78024a50270940304540a733656f0d60405160405180910390a4506001610374565b506000610374565b60006108bc83836104c0565b156108a8576000838152602081815260408083206001600160a01b0386168085529252808320805460ff1916905551339286917ff6391f5c32d9c69d2a47ea670b442974b53935d1edc7fd64eb21e047a839171b9190a4506001610374565b61092582826104c0565b6109545760405163e2517d3f60e01b81526001600160a01b038216600482015260248101839052604401610576565b5050565b60006020828403121561096a57600080fd5b81356001600160e01b03198116811461098257600080fd5b9392505050565b60006020828403121561099b57600080fd5b5035919050565b80356001600160a01b03811681146109b957600080fd5b919050565b6000602082840312156109d057600080fd5b610982826109a2565b600080604083850312156109ec57600080fd5b823591506109fc602084016109a2565b9050925092905056fe9c14a71b1abc43fda1a1e8dae42e3b258935b40c30eae40d89841dcdc2e9601ba26228957b4ff1ee8d2f4555d58f130924b7939446a6af38afd42a510a51fbb4de51ce53ff7a9105223a28091050714234188110034f9505f4dc11ec1fc2d1161bc8204651e2978ba6ed20f8dce4504b670f5d59911d2bb62450e395b7399da6b99fd98e1f59ab9248cc33ada4ed182a45da8640a4da98d10627d8605878a5eda2646970667358221220a4c71f095992b2fc97cae8f3641e80486dad17087d607909e805fea27d51262664736f6c63430008180033",
  "linkReferences": {},
  "deployedLinkReferences": {}
}