{"contracts/RoleManager.sol":{"RoleManager":{"abi":[{"inputs":[{"internalType":"address","name":"initialCountryAdmin","type":"address"}],"stateMutability":"nonpayable","type":"constructor"},{"inputs":[],"name":"AccessControlBadConfirmation","type":"error"},{"inputs":[{"internalType":"address","name":"account","type":"address"},{"internalType":"bytes32","name":"neededRole","type":"bytes32"}],"name":"AccessControlUnauthorizedAccount","type":"error"},{"anonymous":false,"inputs":[{"indexed":true,"internalType":"bytes32","name":"role","type":"bytes32"},{"indexed":true,"internalType":"bytes32","name":"previousAdminRole","type":"bytes32"},{"indexed":true,"internalType":"bytes32","name":"newAdminRole","type":"bytes32"}],"name":"RoleAdminChanged","type":"event"},{"anonymous":false,"inputs":[{"indexed":true,"internalType":"address","name":"account","type":"address"},{"indexed":true,"internalType":"bytes32","name":"role","type":"bytes32"},{"indexed":true,"internalType":"address","name":"approver","type":"address"}],"name":"RoleApproved","type":"event"},{"anonymous":false,"inputs":[{"indexed":true,"internalType":"bytes32","name":"role","type":"bytes32"},{"indexed":true,"internalType":"address","name":"account","type":"address"},{"indexed":true,"internalType":"address","name":"sender","type":"address"}],"name":"RoleGranted","type":"event"},{"anonymous":false,"inputs":[{"indexed":true,"internalType":"address","name":"account","type":"address"},{"indexed":true,"internalType":"bytes32","name":"role","type":"bytes32"}],"name":"RoleRequested","type":"event"},{"anonymous":false,"inputs":[{"indexed":true,"internalType":"bytes32","name":"role","type":"bytes32"},{"indexed":true,"internalType":"address","name":"account","type":"address"},{"indexed":true,"internalType":"address","name":"sender","type":"address"}],"name":"RoleRevoked","type":"event"},{"inputs":[],"name":"AUDITOR_ROLE","outputs":[{"internalType":"bytes32","name":"","type":"bytes32"}],"stateMutability":"view","type":"function"},{"inputs":[],"name":"BUYER_ROLE","outputs":[{"internalType":"bytes32","name":"","type":"bytes32"}],"stateMutability":"view","type":"function"},{"inputs":[],"name":"CITY_ADMIN_ROLE","outputs":[{"internalType":"bytes32","name":"","type":"bytes32"}],"stateMutability":"view","type":"function"},{"inputs":[],"name":"COUNTRY_ADMIN_ROLE","outputs":[{"internalType":"bytes32","name":"","type":"bytes32"}],"stateMutability":"view","type":"function"},{"inputs":[],"name":"DEFAULT_ADMIN_ROLE","outputs":[{"internalType":"bytes32","name":"","type":"bytes32"}],"stateMutability":"view","type":"function"},{"inputs":[],"name":"PRODUCER_ROLE","outputs":[{"internalType":"bytes32","name":"","type":"bytes32"}],"stateMutability":"view","type":"function"},{"inputs":[],"name":"STATE_ADMIN_ROLE","outputs":[{"internalType":"bytes32","name":"","type":"bytes32"}],"stateMutability":"view","type":"function"},{"inputs":[{"internalType":"address","name":"account","type":"address"}],"name":"approveAuditor","outputs":[],"stateMutability":"nonpayable","type":"function"},{"inputs":[{"internalType":"address","name":"account","type":"address"}],"name":"approveBuyer","outputs":[],"stateMutability":"nonpayable","type":"function"},{"inputs":[{"internalType":"address","name":"account","type":"address"}],"name":"approveCityAdmin","outputs":[],"stateMutability":"nonpayable","type":"function"},{"inputs":[{"internalType":"address","name":"account","type":"address"}],"name":"approveProducer","outputs":[],"stateMutability":"nonpayable","type":"function"},{"inputs":[{"internalType":"address","name":"account","type":"address"}],"name":"approveStateAdmin","outputs":[],"stateMutability":"nonpayable","type":"function"},{"inputs":[{"internalType":"bytes32","name":"role","type":"bytes32"}],"name":"getRoleAdmin","outputs":[{"internalType":"bytes32","name":"","type":"bytes32"}],"stateMutability":"view","type":"function"},{"inputs":[{"internalType":"bytes32","name":"role","type":"bytes32"},{"internalType":"address","name":"account","type":"address"}],"name":"grantRole","outputs":[],"stateMutability":"nonpayable","type":"function"},{"inputs":[{"internalType":"bytes32","name":"role","type":"bytes32"},{"internalType":"address","name":"account","type":"address"}],"name":"hasRole","outputs":[{"internalType":"bool","name":"","type":"bool"}],"stateMutability":"view","type":"function"},{"inputs":[{"internalType":"address","name":"account","type":"address"}],"name":"isAdmin","outputs":[{"internalType":"bool","name":"","type":"bool"}],"stateMutability":"view","type":"function"},{"inputs":[{"internalType":"address","name":"account","type":"address"}],"name":"isCityAdmin","outputs":[{"internalType":"bool","name":"","type":"bool"}],"stateMutability":"view","type":"function"},{"inputs":[{"internalType":"address","name":"account","type":"address"}],"name":"isProducer","outputs":[{"internalType":"bool","name":"","type":"bool"}],"stateMutability":"view","type":"function"},{"inputs":[{"internalType":"bytes32","name":"role","type":"bytes32"},{"internalType":"address","name":"callerConfirmation","type":"address"}],"name":"renounceRole","outputs":[],"stateMutability":"nonpayable","type":"function"},{"inputs":[{"internalType":"bytes32","name":"role","type":"bytes32"}],"name":"requestRole","outputs":[],"stateMutability":"nonpayable","type":"function"},{"inputs":[{"internalType":"bytes32","name":"role","type":"bytes32"},{"internalType":"address","name":"account","type":"address"}],"name":"revokeRole","outputs":[],"stateMutability":"nonpayable","type":"function"},{"inputs":[{"internalType":"bytes4","name":"interfaceId","type":"bytes4"}],"name":"supportsInterface","outputs":[{"internalType":"bool","name":"","type":"bool"}],"stateMutability":"view","type":"function"}],"evm":{"bytecode":{"linkReferences":{},"object":"608060405234801561001057600080fd5b50604051610c32380380610c3283398101604081905261002f91610118565b61003a60008261006c565b506100657f1bc8204651e2978ba6ed20f8dce4504b670f5d59911d2bb62450e395b7399da68261006c565b5050610148565b6000828152602081815260408083206001600160a01b038516845290915281205460ff1661010e576000838152602081815260408083206001600160a01b03861684529091529020805460ff191660011790556100c63390565b6001600160a01b0316826001600160a01b0316847f2f8788117e7eff1d82e926ec794901d17c78024a50270940304540a733656f0d60405160405180910390a4506001610112565b5060005b92915050565b60006020828403121561012a57600080fd5b81516001600160a01b038116811461014157600080fd5b9392505050565b610adb806101576000396000f3fe608060405234801561001057600080fd5b50600436106101425760003560e01c8063a5f523d4116100b8578063e28538071161007c578063e2853807146102cf578063e668ad05146102e2578063e6e9c8d8146102f5578063f55210221461030a578063f72ea4081461031d578063f9ab88bd1461033057600080fd5b8063a5f523d41461026c578063a956253a1461027f578063bab619f714610294578063cb3e1fe7146102a7578063d547741f146102bc57600080fd5b806336568abe1161010a57806336568abe146101dd5780636e1d616e146101f05780637a01a1da14610217578063902a82111461023e57806391d1485414610251578063a217fddf1461026457600080fd5b806301ffc9a714610147578063081045a41461016f578063248a9ca31461019257806324d7806c146101b55780632f2ff15d146101c8575b600080fd5b61015a610155366004610958565b610343565b60405190151581526020015b60405180910390f35b610184600080516020610a6683398151915281565b604051908152602001610166565b6101846101a0366004610989565b60009081526020819052604090206001015490565b61015a6101c33660046109be565b61037a565b6101db6101d63660046109d9565b6103d0565b005b6101db6101eb3660046109d9565b6103fb565b6101847fd8994f6d76f930dc5ea8c60e38e6334a87bb8539cc3082ac6828681c33316e3d81565b6101847feeccd0cdb44235955432f589255f62b95683f64165b40b022d338b8009cf79b681565b6101db61024c3660046109be565b610433565b61015a61025f3660046109d9565b6104c0565b610184600081565b6101db61027a3660046109be565b6104e9565b610184600080516020610a4683398151915281565b61015a6102a23660046109be565b6105f3565b610184600080516020610a2683398151915281565b6101db6102ca3660046109d9565b61060d565b6101db6102dd3660046109be565b610632565b6101db6102f0366004610989565b61069b565b610184600080516020610a8683398151915281565b61015a6103183660046109be565b6106cb565b6101db61032b3660046109be565b6106e5565b6101db61033e3660046109be565b61074e565b60006001600160e01b03198216637965db0b60e01b148061037457506301ffc9a760e01b6001600160e01b03198316145b92915050565b6000610394600080516020610a66833981519152836104c0565b806103b257506103b2600080516020610a46833981519152836104c0565b806103745750610374600080516020610a86833981519152836104c0565b6000828152602081905260409020600101546103eb81610811565b6103f5838361081e565b50505050565b6001600160a01b03811633146104245760405163334bd91960e11b815260040160405180910390fd5b61042e82826108b0565b505050565b600080516020610a6683398151915261044b81610811565b6104757fd8994f6d76f930dc5ea8c60e38e6334a87bb8539cc3082ac6828681c33316e3d8361081e565b5060405133907fd8994f6d76f930dc5ea8c60e38e6334a87bb8539cc3082ac6828681c33316e3d906001600160a01b03851690600080516020610a0683398151915290600090a45050565b6000918252602082815260408084206001600160a01b0393909316845291905290205460ff1690565b610501600080516020610a86833981519152336104c0565b8061051f575061051f600080516020610a46833981519152336104c0565b8061053d575061053d600080516020610a66833981519152336104c0565b61057f5760405162461bcd60e51b815260206004820152600e60248201526d139bdd08185d5d1a1bdc9a5e995960921b60448201526064015b60405180910390fd5b6105a97feeccd0cdb44235955432f589255f62b95683f64165b40b022d338b8009cf79b68261081e565b5060405133907feeccd0cdb44235955432f589255f62b95683f64165b40b022d338b8009cf79b6906001600160a01b03841690600080516020610a0683398151915290600090a450565b6000610374600080516020610a86833981519152836104c0565b60008281526020819052604090206001015461062881610811565b6103f583836108b0565b600080516020610a6683398151915261064a81610811565b610662600080516020610a468339815191528361081e565b506040513390600080516020610a46833981519152906001600160a01b03851690600080516020610a0683398151915290600090a45050565b604051819033907f2c5d566a9ea3fa5f9d93d90fcbfad5dbc454cf7907a3994e129541ceff4f1c2290600090a350565b6000610374600080516020610a26833981519152836104c0565b600080516020610a868339815191526106fd81610811565b610715600080516020610a268339815191528361081e565b506040513390600080516020610a26833981519152906001600160a01b03851690600080516020610a0683398151915290600090a45050565b610766600080516020610a46833981519152336104c0565b806107845750610784600080516020610a66833981519152336104c0565b6107c15760405162461bcd60e51b815260206004820152600e60248201526d139bdd08185d5d1a1bdc9a5e995960921b6044820152606401610576565b6107d9600080516020610a868339815191528261081e565b506040513390600080516020610a86833981519152906001600160a01b03841690600080516020610a0683398151915290600090a450565b61081b813361091b565b50565b600061082a83836104c0565b6108a8576000838152602081815260408083206001600160a01b03861684529091529020805460ff191660011790556108603390565b6001600160a01b0316826001600160a01b0316847f2f8788117e7eff1d82e926ec794901d17c78024a50270940304540a733656f0d60405160405180910390a4506001610374565b506000610374565b60006108bc83836104c0565b156108a8576000838152602081815260408083206001600160a01b0386168085529252808320805460ff1916905551339286917ff6391f5c32d9c69d2a47ea670b442974b53935d1edc7fd64eb21e047a839171b9190a4506001610374565b61092582826104c0565b6109545760405163e2517d3f60e01b81526001600160a01b038216600482015260248101839052604401610576565b5050565b60006020828403121561096a57600080fd5b81356001600160e01b03198116811461098257600080fd5b9392505050565b60006020828403121561099b57600080fd5b5035919050565b80356001600160a01b03811681146109b957600080fd5b919050565b6000602082840312156109d057600080fd5b610982826109a2565b600080604083850312156109ec57600080fd5b823591506109fc602084016109a2565b9050925092905056fe9c14a71b1abc43fda1a1e8dae42e3b258935b40c30eae40d89841dcdc2e9601ba26228957b4ff1ee8d2f4555d58f130924b7939446a6af38afd42a510a51fbb4de51ce53ff7a9105223a28091050714234188110034f9505f4dc11ec1fc2d1161bc8204651e2978ba6ed20f8dce4504b670f5d59911d2bb62450e395b7399da6b99fd98e1f59ab9248cc33ada4ed182a45da8640a4da98d10627d8605878a5eda2646970667358221220a4c71f095992b2fc97cae8f3641e80486dad17087d607909e805fea27d51262664736f6c63430008180033","opcodes":"PUSH1 0x80 PUSH1 0x40 MSTORE CALLVALUE DUP1 ISZERO PUSH2 0x10 JUMPI PUSH1 0x0 DUP1 REVERT JUMPDEST POP PUSH1 0x40 MLOAD PUSH2 0xC32 CODESIZE SUB DUP1 PUSH2 0xC32 DUP4 CODECOPY DUP2 ADD PUSH1 0x40 DUP2 SWAP1 MSTORE PUSH2 0x2F SWAP2 PUSH2 0x118 JUMP JUMPDEST PUSH2 0x3A PUSH1 0x0 DUP3 PUSH2 0x6C JUMP JUMPDEST POP PUSH2 0x65 PUSH32 0x1BC8204651E2978BA6ED20F8DCE4504B670F5D59911D2BB62450E395B7399DA6 DUP3 PUSH2 0x6C JUMP JUMPDEST POP POP PUSH2 0x148 JUMP JUMPDEST PUSH1 0x0 DUP3 DUP2 MSTORE PUSH1 0x20 DUP2 DUP2 MSTORE PUSH1 0x40 DUP1 DUP4 KECCAK256 PUSH1 0x1 PUSH1 0x1 PUSH1 0xA0 SHL SUB DUP6 AND DUP5 MSTORE SWAP1 SWAP2 MSTORE DUP2 KECCAK256 SLOAD PUSH1 0xFF AND PUSH2 0x10E JUMPI PUSH1 0x0 DUP4 DUP2 MSTORE PUSH1 0x20 DUP2 DUP2 MSTORE PUSH1 0x40 DUP1 DUP4 KECCAK256 PUSH1 0x1 PUSH1 0x1 PUSH1 0xA0 SHL SUB DUP7 AND DUP5 MSTORE SWAP1 SWAP2 MSTORE SWAP1 KECCAK256 DUP1 SLOAD PUSH1 0xFF NOT AND PUSH1 0x1 OR SWAP1 SSTORE PUSH2 0xC6 CALLER SWAP1 JUMP JUMPDEST PUSH1 0x1 PUSH1 0x1 PUSH1 0xA0 SHL SUB AND DUP3 PUSH1 0x1 PUSH1 0x1 PUSH1 0xA0 SHL SUB AND DUP5 PUSH32 0x2F8788117E7EFF1D82E926EC794901D17C78024A50270940304540A733656F0D PUSH1 0x40 MLOAD PUSH1 0x40 MLOAD DUP1 SWAP2 SUB SWAP1 LOG4 POP PUSH1 0x1 PUSH2 0x112 JUMP JUMPDEST POP PUSH1 0x0 JUMPDEST SWAP3 SWAP2 POP POP JUMP JUMPDEST PUSH1 0x0 PUSH1 0x20 DUP3 DUP5 SUB SLT ISZERO PUSH2 0x12A JUMPI PUSH1 0x0 DUP1 REVERT JUMPDEST DUP2 MLOAD PUSH1 0x1 PUSH1 0x1 PUSH1 0xA0 SHL SUB DUP2 AND DUP2 EQ PUSH2 0x141 JUMPI PUSH1 0x0 DUP1 REVERT JUMPDEST SWAP4 SWAP3 POP POP POP JUMP JUMPDEST PUSH2 0xADB DUP1 PUSH2 0x157 PUSH1 0x0 CODECOPY PUSH1 0x0 RETURN INVALID PUSH1 0x80 PUSH1 0x40 MSTORE CALLVALUE DUP1 ISZERO PUSH2 0x10 JUMPI PUSH1 0x0 DUP1 REVERT JUMPDEST POP PUSH1 0x4 CALLDATASIZE LT PUSH2 0x142 JUMPI PUSH1 0x0 CALLDATALOAD PUSH1 0xE0 SHR DUP1 PUSH4 0xA5F523D4 GT PUSH2 0xB8 JUMPI DUP1 PUSH4 0xE2853807 GT PUSH2 0x7C JUMPI DUP1 PUSH4 0xE2853807 EQ PUSH2 0x2CF JUMPI DUP1 PUSH4 0xE668AD05 EQ PUSH2 0x2E2 JUMPI DUP1 PUSH4 0xE6E9C8D8 EQ PUSH2 0x2F5 JUMPI DUP1 PUSH4 0xF5521022 EQ PUSH2 0x30A JUMPI DUP1 PUSH4 0xF72EA408 EQ PUSH2 0x31D JUMPI DUP1 PUSH4 0xF9AB88BD EQ PUSH2 0x330 JUMPI PUSH1 0x0 DUP1 REVERT JUMPDEST DUP1 PUSH4 0xA5F523D4 EQ PUSH2 0x26C JUMPI DUP1 PUSH4 0xA956253A EQ PUSH2 0x27F JUMPI DUP1 PUSH4 0xBAB619F7 EQ PUSH2 0x294 JUMPI DUP1 PUSH4 0xCB3E1FE7 EQ PUSH2 0x2A7 JUMPI DUP1 PUSH4 0xD547741F EQ PUSH2 0x2BC JUMPI PUSH1 0x0 DUP1 REVERT JUMPDEST DUP1 PUSH4 0x36568ABE GT PUSH2 0x10A JUMPI DUP1 PUSH4 0x36568ABE EQ PUSH2 0x1DD JUMPI DUP1 PUSH4 0x6E1D616E EQ PUSH2 0x1F0 JUMPI DUP1 PUSH4 0x7A01A1DA EQ PUSH2 0x217 JUMPI DUP1 PUSH4 0x902A8211 EQ PUSH2 0x23E JUMPI DUP1 PUSH4 0x91D14854 EQ PUSH2 0x251 JUMPI DUP1 PUSH4 0xA217FDDF EQ PUSH2 0x264 JUMPI PUSH1 0x0 DUP1 REVERT JUMPDEST DUP1 PUSH4 0x1FFC9A7 EQ PUSH2 0x147 JUMPI DUP1 PUSH4 0x81045A4 EQ PUSH2 0x16F JUMPI DUP1 PUSH4 0x248A9CA3 EQ PUSH2 0x192 JUMPI DUP1 PUSH4 0x24D7806C EQ PUSH2 0x1B5 JUMPI DUP1 PUSH4 0x2F2FF15D EQ PUSH2 0x1C8 JUMPI JUMPDEST PUSH1 0x0 DUP1 REVERT JUMPDEST PUSH2 0x15A PUSH2 0x155 CALLDATASIZE PUSH1 0x4 PUSH2 0x958 JUMP JUMPDEST PUSH2 0x343 JUMP JUMPDEST PUSH1 0x40 MLOAD SWAP1 ISZERO ISZERO DUP2 MSTORE PUSH1 0x20 ADD JUMPDEST PUSH1 0x40 MLOAD DUP1 SWAP2 SUB SWAP1 RETURN JUMPDEST PUSH2 0x184 PUSH1 0x0 DUP1 MLOAD PUSH1 0x20 PUSH2 0xA66 DUP4 CODECOPY DUP2 MLOAD SWAP2 MSTORE DUP2 JUMP JUMPDEST PUSH1 0x40 MLOAD SWAP1 DUP2 MSTORE PUSH1 0x20 ADD PUSH2 0x166 JUMP JUMPDEST PUSH2 0x184 PUSH2 0x1A0 CALLDATASIZE PUSH1 0x4 PUSH2 0x989 JUMP JUMPDEST PUSH1 0x0 SWAP1 DUP2 MSTORE PUSH1 0x20 DUP2 SWAP1 MSTORE PUSH1 0x40 SWAP1 KECCAK256 PUSH1 0x1 ADD SLOAD SWAP1 JUMP JUMPDEST PUSH2 0x15A PUSH2 0x1C3 CALLDATASIZE PUSH1 0x4 PUSH2 0x9BE JUMP JUMPDEST PUSH2 0x37A JUMP JUMPDEST PUSH2 0x1DB PUSH2 0x1D6 CALLDATASIZE PUSH1 0x4 PUSH2 0x9D9 JUMP JUMPDEST PUSH2 0x3D0 JUMP JUMPDEST STOP JUMPDEST PUSH2 0x1DB PUSH2 0x1EB CALLDATASIZE PUSH1 0x4 PUSH2 0x9D9 JUMP JUMPDEST PUSH2 0x3FB JUMP JUMPDEST PUSH2 0x184 PUSH32 0xD8994F6D76F930DC5EA8C60E38E6334A87BB8539CC3082AC6828681C33316E3D DUP2 JUMP JUMPDEST PUSH2 0x184 PUSH32 0xEECCD0CDB44235955432F589255F62B95683F64165B40B022D338B8009CF79B6 DUP2 JUMP JUMPDEST PUSH2 0x1DB PUSH2 0x24C CALLDATASIZE PUSH1 0x4 PUSH2 0x9BE JUMP JUMPDEST PUSH2 0x433 JUMP JUMPDEST PUSH2 0x15A PUSH2 0x25F CALLDATASIZE PUSH1 0x4 PUSH2 0x9D9 JUMP JUMPDEST PUSH2 0x4C0 JUMP JUMPDEST PUSH2 0x184 PUSH1 0x0 DUP2 JUMP JUMPDEST PUSH2 0x1DB PUSH2 0x27A CALLDATASIZE PUSH1 0x4 PUSH2 0x9BE JUMP JUMPDEST PUSH2 0x4E9 JUMP JUMPDEST PUSH2 0x184 PUSH1 0x0 DUP1 MLOAD PUSH1 0x20 PUSH2 0xA46 DUP4 CODECOPY DUP2 MLOAD SWAP2 MSTORE DUP2 JUMP JUMPDEST PUSH2 0x15A PUSH2 0x2A2 CALLDATASIZE PUSH1 0x4 PUSH2 0x9BE JUMP JUMPDEST PUSH2 0x5F3 JUMP JUMPDEST PUSH2 0x184 PUSH1 0x0 DUP1 MLOAD PUSH1 0x20 PUSH2 0xA26 DUP4 CODECOPY DUP2 MLOAD SWAP2 MSTORE DUP2 JUMP JUMPDEST PUSH2 0x1DB PUSH2 0x2CA CALLDATASIZE PUSH1 0x4 PUSH2 0x9D9 JUMP JUMPDEST PUSH2 0x60D JUMP JUMPDEST PUSH2 0x1DB PUSH2 0x2DD CALLDATASIZE PUSH1 0x4 PUSH2 0x9BE JUMP JUMPDEST PUSH2 0x632 JUMP JUMPDEST PUSH2 0x1DB PUSH2 0x2F0 CALLDATASIZE PUSH1 0x4 PUSH2 0x989 JUMP JUMPDEST PUSH2 0x69B JUMP JUMPDEST PUSH2 0x184 PUSH1 0x0 DUP1 MLOAD PUSH1 0x20 PUSH2 0xA86 DUP4 CODECOPY DUP2 MLOAD SWAP2 MSTORE DUP2 JUMP JUMPDEST PUSH2 0x15A PUSH2 0x318 CALLDATASIZE PUSH1 0x4 PUSH2 0x9BE JUMP JUMPDEST PUSH2 0x6CB JUMP JUMPDEST PUSH2 0x1DB PUSH2 0x32B CALLDATASIZE PUSH1 0x4 PUSH2 0x9BE JUMP JUMPDEST PUSH2 0x6E5 JUMP JUMPDEST PUSH2 0x1DB PUSH2 0x33E CALLDATASIZE PUSH1 0x4 PUSH2 0x9BE JUMP JUMPDEST PUSH2 0x74E JUMP JUMPDEST PUSH1 0x0 PUSH1 0x1 PUSH1 0x1 PUSH1 0xE0 SHL SUB NOT DUP3 AND PUSH4 0x7965DB0B PUSH1 0xE0 SHL EQ DUP1 PUSH2 0x374 JUMPI POP PUSH4 0x1FFC9A7 PUSH1 0xE0 SHL PUSH1 0x1 PUSH1 0x1 PUSH1 0xE0 SHL SUB NOT DUP4 AND EQ JUMPDEST SWAP3 SWAP2 POP POP JUMP JUMPDEST PUSH1 0x0 PUSH2 0x394 PUSH1 0x0 DUP1 MLOAD PUSH1 0x20 PUSH2 0xA66 DUP4 CODECOPY DUP2 MLOAD SWAP2 MSTORE DUP4 PUSH2 0x4C0 JUMP JUMPDEST DUP1 PUSH2 0x3B2 JUMPI POP PUSH2 0x3B2 PUSH1 0x0 DUP1 MLOAD PUSH1 0x20 PUSH2 0xA46 DUP4 CODECOPY DUP2 MLOAD SWAP2 MSTORE DUP4 PUSH2 0x4C0 JUMP JUMPDEST DUP1 PUSH2 0x374 JUMPI POP PUSH2 0x374 PUSH1 0x0 DUP1 MLOAD PUSH1 0x20 PUSH2 0xA86 DUP4 CODECOPY DUP2 MLOAD SWAP2 MSTORE DUP4 PUSH2 0x4C0 JUMP JUMPDEST PUSH1 0x0 DUP3 DUP2 MSTORE PUSH1 0x20 DUP2 SWAP1 MSTORE PUSH1 0x40 SWAP1 KECCAK256 PUSH1 0x1 ADD SLOAD PUSH2 0x3EB DUP2 PUSH2 0x811 JUMP JUMPDEST PUSH2 0x3F5 DUP4 DUP4 PUSH2 0x81E JUMP JUMPDEST POP POP POP POP JUMP JUMPDEST PUSH1 0x1 PUSH1 0x1 PUSH1 0xA0 SHL SUB DUP2 AND CALLER EQ PUSH2 0x424 JUMPI PUSH1 0x40 MLOAD PUSH4 0x334BD919 PUSH1 0xE1 SHL DUP2 MSTORE PUSH1 0x4 ADD PUSH1 0x40 MLOAD DUP1 SWAP2 SUB SWAP1 REVERT JUMPDEST PUSH2 0x42E DUP3 DUP3 PUSH2 0x8B0 JUMP JUMPDEST POP POP POP JUMP JUMPDEST PUSH1 0x0 DUP1 MLOAD PUSH1 0x20 PUSH2 0xA66 DUP4 CODECOPY DUP2 MLOAD SWAP2 MSTORE PUSH2 0x44B DUP2 PUSH2 0x811 JUMP JUMPDEST PUSH2 0x475 PUSH32 0xD8994F6D76F930DC5EA8C60E38E6334A87BB8539CC3082AC6828681C33316E3D DUP4 PUSH2 0x81E JUMP JUMPDEST POP PUSH1 0x40 MLOAD CALLER SWAP1 PUSH32 0xD8994F6D76F930DC5EA8C60E38E6334A87BB8539CC3082AC6828681C33316E3D SWAP1 PUSH1 0x1 PUSH1 0x1 PUSH1 0xA0 SHL SUB DUP6 AND SWAP1 PUSH1 0x0 DUP1 MLOAD PUSH1 0x20 PUSH2 0xA06 DUP4 CODECOPY DUP2 MLOAD SWAP2 MSTORE SWAP1 PUSH1 0x0 SWAP1 LOG4 POP POP JUMP JUMPDEST PUSH1 0x0 SWAP2 DUP3 MSTORE PUSH1 0x20 DUP3 DUP2 MSTORE PUSH1 0x40 DUP1 DUP5 KECCAK256 PUSH1 0x1 PUSH1 0x1 PUSH1 0xA0 SHL SUB SWAP4 SWAP1 SWAP4 AND DUP5 MSTORE SWAP2 SWAP1 MSTORE SWAP1 KECCAK256 SLOAD PUSH1 0xFF AND SWAP1 JUMP JUMPDEST PUSH2 0x501 PUSH1 0x0 DUP1 MLOAD PUSH1 0x20 PUSH2 0xA86 DUP4 CODECOPY DUP2 MLOAD SWAP2 MSTORE CALLER PUSH2 0x4C0 JUMP JUMPDEST DUP1 PUSH2 0x51F JUMPI POP PUSH2 0x51F PUSH1 0x0 DUP1 MLOAD PUSH1 0x20 PUSH2 0xA46 DUP4 CODECOPY DUP2 MLOAD SWAP2 MSTORE CALLER PUSH2 0x4C0 JUMP JUMPDEST DUP1 PUSH2 0x53D JUMPI POP PUSH2 0x53D PUSH1 0x0 DUP1 MLOAD PUSH1 0x20 PUSH2 0xA66 DUP4 CODECOPY DUP2 MLOAD SWAP2 MSTORE CALLER PUSH2 0x4C0 JUMP JUMPDEST PUSH2 0x57F JUMPI PUSH1 0x40 MLOAD PUSH3 0x461BCD PUSH1 0xE5 SHL DUP2 MSTORE PUSH1 0x20 PUSH1 0x4 DUP3 ADD MSTORE PUSH1 0xE PUSH1 0x24 DUP3 ADD MSTORE PUSH14 0x139BDD08185D5D1A1BDC9A5E9959 PUSH1 0x92 SHL PUSH1 0x44 DUP3 ADD MSTORE PUSH1 0x64 ADD JUMPDEST PUSH1 0x40 MLOAD DUP1 SWAP2 SUB SWAP1 REVERT JUMPDEST PUSH2 0x5A9 PUSH32 0xEECCD0CDB44235955432F589255F62B95683F64165B40B022D338B8009CF79B6 DUP3 PUSH2 0x81E JUMP JUMPDEST POP PUSH1 0x40 MLOAD CALLER SWAP1 PUSH32 0xEECCD0CDB44235955432F589255F62B95683F64165B40B022D338B8009CF79B6 SWAP1 PUSH1 0x1 PUSH1 0x1 PUSH1 0xA0 SHL SUB DUP5 AND SWAP1 PUSH1 0x0 DUP1 MLOAD PUSH1 0x20 PUSH2 0xA06 DUP4 CODECOPY DUP2 MLOAD SWAP2 MSTORE SWAP1 PUSH1 0x0 SWAP1 LOG4 POP JUMP JUMPDEST PUSH1 0x0 PUSH2 0x374 PUSH1 0x0 DUP1 MLOAD PUSH1 0x20 PUSH2 0xA86 DUP4 CODECOPY DUP2 MLOAD SWAP2 MSTORE DUP4 PUSH2 0x4C0 JUMP JUMPDEST PUSH1 0x0 DUP3 DUP2 MSTORE PUSH1 0x20 DUP2 SWAP1 MSTORE PUSH1 0x40 SWAP1 KECCAK256 PUSH1 0x1 ADD SLOAD PUSH2 0x628 DUP2 PUSH2 0x811 JUMP JUMPDEST PUSH2 0x3F5 DUP4 DUP4 PUSH2 0x8B0 JUMP JUMPDEST PUSH1 0x0 DUP1 MLOAD PUSH1 0x20 PUSH2 0xA66 DUP4 CODECOPY DUP2 MLOAD SWAP2 MSTORE PUSH2 0x64A DUP2 PUSH2 0x811 JUMP JUMPDEST PUSH2 0x662 PUSH1 0x0 DUP1 MLOAD PUSH1 0x20 PUSH2 0xA46 DUP4 CODECOPY DUP2 MLOAD SWAP2 MSTORE DUP4 PUSH2 0x81E JUMP JUMPDEST POP PUSH1 0x40 MLOAD CALLER SWAP1 PUSH1 0x0 DUP1 MLOAD PUSH1 0x20 PUSH2 0xA46 DUP4 CODECOPY DUP2 MLOAD SWAP2 MSTORE SWAP1 PUSH1 0x1 PUSH1 0x1 PUSH1 0xA0 SHL SUB DUP6 AND SWAP1 PUSH1 0x0 DUP1 MLOAD PUSH1 0x20 PUSH2 0xA06 DUP4 CODECOPY DUP2 MLOAD SWAP2 MSTORE SWAP1 PUSH1 0x0 SWAP1 LOG4 POP POP JUMP JUMPDEST PUSH1 0x40 MLOAD DUP2 SWAP1 CALLER SWAP1 PUSH32 0x2C5D566A9EA3FA5F9D93D90FCBFAD5DBC454CF7907A3994E129541CEFF4F1C22 SWAP1 PUSH1 0x0 SWAP1 LOG3 POP JUMP JUMPDEST PUSH1 0x0 PUSH2 0x374 PUSH1 0x0 DUP1 MLOAD PUSH1 0x20 PUSH2 0xA26 DUP4 CODECOPY DUP2 MLOAD SWAP2 MSTORE DUP4 PUSH2 0x4C0 JUMP JUMPDEST PUSH1 0x0 DUP1 MLOAD PUSH1 0x20 PUSH2 0xA86 DUP4 CODECOPY DUP2 MLOAD SWAP2 MSTORE PUSH2 0x6FD DUP2 PUSH2 0x811 JUMP JUMPDEST PUSH2 0x715 PUSH1 0x0 DUP1 MLOAD PUSH1 0x20 PUSH2 0xA26 DUP4 CODECOPY DUP2 MLOAD SWAP2 MSTORE DUP4 PUSH2 0x81E JUMP JUMPDEST POP PUSH1 0x40 MLOAD CALLER SWAP1 PUSH1 0x0 DUP1 MLOAD PUSH1 0x20 PUSH2 0xA26 DUP4 CODECOPY DUP2 MLOAD SWAP2 MSTORE SWAP1 PUSH1 0x1 PUSH1 0x1 PUSH1 0xA0 SHL SUB DUP6 AND SWAP1 PUSH1 0x0 DUP1 MLOAD PUSH1 0x20 PUSH2 0xA06 DUP4 CODECOPY DUP2 MLOAD SWAP2 MSTORE SWAP1 PUSH1 0x0 SWAP1 LOG4 POP POP JUMP JUMPDEST PUSH2 0x766 PUSH1 0x0 DUP1 MLOAD PUSH1 0x20 PUSH2 0xA46 DUP4 CODECOPY DUP2 MLOAD SWAP2 MSTORE CALLER PUSH2 0x4C0 JUMP JUMPDEST DUP1 PUSH2 0x784 JUMPI POP PUSH2 0x784 PUSH1 0x0 DUP1 MLOAD PUSH1 0x20 PUSH2 0xA66 DUP4 CODECOPY DUP2 MLOAD SWAP2 MSTORE CALLER PUSH2 0x4C0 JUMP JUMPDEST PUSH2 0x7C1 JUMPI PUSH1 0x40 MLOAD PUSH3 0x461BCD PUSH1 0xE5 SHL DUP2 MSTORE PUSH1 0x20 PUSH1 0x4 DUP3 ADD MSTORE PUSH1 0xE PUSH1 0x24 DUP3 ADD MSTORE PUSH14 0x139BDD08185D5D1A1BDC9A5E9959 PUSH1 0x92 SHL PUSH1 0x44 DUP3 ADD MSTORE PUSH1 0x64 ADD PUSH2 0x576 JUMP JUMPDEST PUSH2 0x7D9 PUSH1 0x0 DUP1 MLOAD PUSH1 0x20 PUSH2 0xA86 DUP4 CODECOPY DUP2 MLOAD SWAP2 MSTORE DUP3 PUSH2 0x81E JUMP JUMPDEST POP PUSH1 0x40 MLOAD CALLER SWAP1 PUSH1 0x0 DUP1 MLOAD PUSH1 0x20 PUSH2 0xA86 DUP4 CODECOPY DUP2 MLOAD SWAP2 MSTORE SWAP1 PUSH1 0x1 PUSH1 0x1 PUSH1 0xA0 SHL SUB DUP5 AND SWAP1 PUSH1 0x0 DUP1 MLOAD PUSH1 0x20 PUSH2 0xA06 DUP4 CODECOPY DUP2 MLOAD SWAP2 MSTORE SWAP1 PUSH1 0x0 SWAP1 LOG4 POP JUMP JUMPDEST PUSH2 0x81B DUP2 CALLER PUSH2 0x91B JUMP JUMPDEST POP JUMP JUMPDEST PUSH1 0x0 PUSH2 0x82A DUP4 DUP4 PUSH2 0x4C0 JUMP JUMPDEST PUSH2 0x8A8 JUMPI PUSH1 0x0 DUP4 DUP2 MSTORE PUSH1 0x20 DUP2 DUP2 MSTORE PUSH1 0x40 DUP1 DUP4 KECCAK256 PUSH1 0x1 PUSH1 0x1 PUSH1 0xA0 SHL SUB DUP7 AND DUP5 MSTORE SWAP1 SWAP2 MSTORE SWAP1 KECCAK256 DUP1 SLOAD PUSH1 0xFF NOT AND PUSH1 0x1 OR SWAP1 SSTORE PUSH2 0x860 CALLER SWAP1 JUMP JUMPDEST PUSH1 0x1 PUSH1 0x1 PUSH1 0xA0 SHL SUB AND DUP3 PUSH1 0x1 PUSH1 0x1 PUSH1 0xA0 SHL SUB AND DUP5 PUSH32 0x2F8788117E7EFF1D82E926EC794901D17C78024A50270940304540A733656F0D PUSH1 0x40 MLOAD PUSH1 0x40 MLOAD DUP1 SWAP2 SUB SWAP1 LOG4 POP PUSH1 0x1 PUSH2 0x374 JUMP JUMPDEST POP PUSH1 0x0 PUSH2 0x374 JUMP JUMPDEST PUSH1 0x0 PUSH2 0x8BC DUP4 DUP4 PUSH2 0x4C0 JUMP JUMPDEST ISZERO PUSH2 0x8A8 JUMPI PUSH1 0x0 DUP4 DUP2 MSTORE PUSH1 0x20 DUP2 DUP2 MSTORE PUSH1 0x40 DUP1 DUP4 KECCAK256 PUSH1 0x1 PUSH1 0x1 PUSH1 0xA0 SHL SUB DUP7 AND DUP1 DUP6 MSTORE SWAP3 MSTORE DUP1 DUP4 KECCAK256 DUP1 SLOAD PUSH1 0xFF NOT AND SWAP1 SSTORE MLOAD CALLER SWAP3 DUP7 SWAP2 PUSH32 0xF6391F5C32D9C69D2A47EA670B442974B53935D1EDC7FD64EB21E047A839171B SWAP2 SWAP1 LOG4 POP PUSH1 0x1 PUSH2 0x374 JUMP JUMPDEST PUSH2 0x925 DUP3 DUP3 PUSH2 0x4C0 JUMP JUMPDEST PUSH2 0x954 JUMPI PUSH1 0x40 MLOAD PUSH4 0xE2517D3F PUSH1 0xE0 SHL DUP2 MSTORE PUSH1 0x1 PUSH1 0x1 PUSH1 0xA0 SHL SUB DUP3 AND PUSH1 0x4 DUP3 ADD MSTORE PUSH1 0x24 DUP2 ADD DUP4 SWAP1 MSTORE PUSH1 0x44 ADD PUSH2 0x576 JUMP JUMPDEST POP POP JUMP JUMPDEST PUSH1 0x0 PUSH1 0x20 DUP3 DUP5 SUB SLT ISZERO PUSH2 0x96A JUMPI PUSH1 0x0 DUP1 REVERT JUMPDEST DUP2 CALLDATALOAD PUSH1 0x1 PUSH1 0x1 PUSH1 0xE0 SHL SUB NOT DUP2 AND DUP2 EQ PUSH2 0x982 JUMPI PUSH1 0x0 DUP1 REVERT JUMPDEST SWAP4 SWAP3 POP POP POP JUMP JUMPDEST PUSH1 0x0 PUSH1 0x20 DUP3 DUP5 SUB SLT ISZERO PUSH2 0x99B JUMPI PUSH1 0x0 DUP1 REVERT JUMPDEST POP CALLDATALOAD SWAP2 SWAP1 POP JUMP JUMPDEST DUP1 CALLDATALOAD PUSH1 0x1 PUSH1 0x1 PUSH1 0xA0 SHL SUB DUP2 AND DUP2 EQ PUSH2 0x9B9 JUMPI PUSH1 0x0 DUP1 REVERT JUMPDEST SWAP2 SWAP1 POP JUMP JUMPDEST PUSH1 0x0 PUSH1 0x20 DUP3 DUP5 SUB SLT ISZERO PUSH2 0x9D0 JUMPI PUSH1 0x0 DUP1 REVERT JUMPDEST PUSH2 0x982 DUP3 PUSH2 0x9A2 JUMP JUMPDEST PUSH1 0x0 DUP1 PUSH1 0x40 DUP4 DUP6 SUB SLT ISZERO PUSH2 0x9EC JUMPI PUSH1 0x0 DUP1 REVERT JUMPDEST DUP3 CALLDATALOAD SWAP2 POP PUSH2 0x9FC PUSH1 0x20 DUP5 ADD PUSH2 0x9A2 JUMP JUMPDEST SWAP1 POP SWAP3 POP SWAP3 SWAP1 POP JUMP INVALID SWAP13 EQ 0xA7 SHL BYTE 0xBC NUMBER REVERT LOG1 LOG1 0xE8 0xDA 0xE4 0x2E EXTCODESIZE 0x25 DUP10 CALLDATALOAD 0xB4 0xC ADDRESS 0xEA 0xE4 0xD DUP10 DUP5 SAR 0xCD 0xC2 0xE9 PUSH1 0x1B LOG2 PUSH3 0x28957B 0x4F CALL 0xEE DUP14 0x2F GASLIMIT SSTORE 0xD5 DUP16 SGT MULMOD 0x24 0xB7 SWAP4 SWAP5 CHAINID 0xA6 0xAF CODESIZE 0xAF 0xD4 0x2A MLOAD EXP MLOAD 0xFB 0xB4 0xDE MLOAD 0xCE MSTORE8 SELFDESTRUCT PUSH27 0x9105223A28091050714234188110034F9505F4DC11EC1FC2D1161B 0xC8 KECCAK256 CHAINID MLOAD 0xE2 SWAP8 DUP12 0xA6 0xED KECCAK256 0xF8 0xDC 0xE4 POP 0x4B PUSH8 0xF5D59911D2BB624 POP 0xE3 SWAP6 0xB7 CODECOPY SWAP14 0xA6 0xB9 SWAP16 0xD9 DUP15 0x1F MSIZE 0xAB SWAP3 BASEFEE 0xCC CALLER 0xAD LOG4 0xED XOR 0x2A GASLIMIT 0xDA DUP7 BLOCKHASH LOG4 0xDA SWAP9 0xD1 MOD 0x27 0xD8 PUSH1 0x58 PUSH25 0xA5EDA2646970667358221220A4C71F095992B2FC97CAE8F364 0x1E DUP1 BASEFEE PUSH14 0xAD17087D607909E805FEA27D5126 0x26 PUSH5 0x736F6C6343 STOP ADDMOD XOR STOP CALLER "},"methodIdentifiers":{"AUDITOR_ROLE()":"6e1d616e","BUYER_ROLE()":"7a01a1da","CITY_ADMIN_ROLE()":"e6e9c8d8","COUNTRY_ADMIN_ROLE()":"081045a4","DEFAULT_ADMIN_ROLE()":"a217fddf","PRODUCER_ROLE()":"cb3e1fe7","STATE_ADMIN_ROLE()":"a956253a","approveAuditor(address)":"902a8211","approveBuyer(address)":"a5f523d4","approveCityAdmin(address)":"f9ab88bd","approveProducer(address)":"f72ea408","approveStateAdmin(address)":"e2853807","getRoleAdmin(bytes32)":"248a9ca3","grantRole(bytes32,address)":"2f2ff15d","hasRole(bytes32,address)":"91d14854","isAdmin(address)":"24d7806c","isCityAdmin(address)":"bab619f7","isProducer(address)":"f5521022","renounceRole(bytes32,address)":"36568abe","requestRole(bytes32)":"e668ad05","revokeRole(bytes32,address)":"d547741f","supportsInterface(bytes4)":"01ffc9a7"}}}}}