{
  "_format": "hh-sol-artifact-1",
  "contractName": "Marketplace",
  "sourceName": "contracts/Marketplace.sol",
  "abi": [
    {
      "inputs": [
        {
          "internalType": "address",
          "name": "tokenAddress",
          "type": "address"
        },
        {
          "internalType": "address",
          "name": "roleManagerAddress",
          "type": "address"
        }
      ],
      "stateMutability": "nonpayable",
      "type": "constructor"
    },
    {
      "inputs": [],
      "name": "ReentrancyGuardReentrantCall",
      "type": "error"
    },
    {
      "anonymous": false,
      "inputs": [
        {
          "indexed": true,
          "internalType": "uint256",
          "name": "id",
          "type": "uint256"
        }
      ],
      "name": "Delisted",
      "type": "event"
    },
    {
      "anonymous": false,
      "inputs": [
        {
          "indexed": true,
          "internalType": "uint256",
          "name": "id",
          "type": "uint256"
        },
        {
          "indexed": true,
          "internalType": "address",
          "name": "seller",
          "type": "address"
        },
        {
          "indexed": false,
          "internalType": "uint256",
          "name": "amount",
          "type": "uint256"
        },
        {
          "indexed": false,
          "internalType": "uint256",
          "name": "pricePerTokenWei",
          "type": "uint256"
        }
      ],
      "name": "Listed",
      "type": "event"
    },
    {
      "anonymous": false,
      "inputs": [
        {
          "indexed": true,
          "internalType": "uint256",
          "name": "id",
          "type": "uint256"
        },
        {
          "indexed": true,
          "internalType": "address",
          "name": "buyer",
          "type": "address"
        },
        {
          "indexed": false,
          "internalType": "uint256",
          "name": "amount",
          "type": "uint256"
        },
        {
          "indexed": false,
          "internalType": "uint256",
          "name": "value",
          "type": "uint256"
        }
      ],
      "name": "Purchased",
      "type": "event"
    },
    {
      "inputs": [
        {
          "internalType": "uint256",
          "name": "listingId",
          "type": "uint256"
        },
        {
          "internalType": "uint256",
          "name": "amount",
          "type": "uint256"
        }
      ],
      "name": "buy",
      "outputs": [],
      "stateMutability": "payable",
      "type": "function"
    },
    {
      "inputs": [
        {
          "internalType": "uint256",
          "name": "amount",
          "type": "uint256"
        },
        {
          "internalType": "uint256",
          "name": "pricePerTokenWei",
          "type": "uint256"
        }
      ],
      "name": "createListing",
      "outputs": [],
      "stateMutability": "nonpayable",
      "type": "function"
    },
    {
      "inputs": [
        {
          "internalType": "uint256",
          "name": "listingId",
          "type": "uint256"
        }
      ],
      "name": "delist",
      "outputs": [],
      "stateMutability": "nonpayable",
      "type": "function"
    },
    {
      "inputs": [
        {
          "internalType": "uint256",
          "name": "",
          "type": "uint256"
        }
      ],
      "name": "listings",
      "outputs": [
        {
          "internalType": "uint256",
          "name": "id",
          "type": "uint256"
        },
        {
          "internalType": "address",
          "name": "seller",
          "type": "address"
        },
        {
          "internalType": "uint256",
          "name": "amount",
          "type": "uint256"
        },
        {
          "internalType": "uint256",
          "name": "pricePerTokenWei",
          "type": "uint256"
        },
        {
          "internalType": "bool",
          "name": "active",
          "type": "bool"
        }
      ],
      "stateMutability": "view",
      "type": "function"
    },
    {
      "inputs": [],
      "name": "nextListingId",
      "outputs": [
        {
          "internalType": "uint256",
          "name": "",
          "type": "uint256"
        }
      ],
      "stateMutability": "view",
      "type": "function"
    },
    {
      "inputs": [],
      "name": "roleManager",
      "outputs": [
        {
          "internalType": "contract IRoleManager2",
          "name": "",
          "type": "address"
        }
      ],
      "stateMutability": "view",
      "type": "function"
    },
    {
      "inputs": [],
      "name": "token",
      "outputs": [
        {
          "internalType": "contract IHydroCredToken",
          "name": "",
          "type": "address"
        }
      ],
      "stateMutability": "view",
      "type": "function"
    }
  ],
  "bytecode": "0x60c06040526001805534801561001457600080fd5b50604051610c9e380380610c9e8339810160408190526100339161006b565b60016000556001600160a01b039182166080521660a05261009e565b80516001600160a01b038116811461006657600080fd5b919050565b6000806040838503121561007e57600080fd5b6100878361004f565b91506100956020840161004f565b90509250929050565b60805160a051610bb96100e560003960008181608601528181610450015261047f0152600081816101d8015281816102d5015281816105c601526109760152610bb96000f3fe60806040526004361061006f5760003560e01c8063aaccf1ec1161004e578063aaccf1ec14610107578063d6febde81461012b578063de74e57b1461013e578063fc0c546a146101c657600080fd5b8062435da514610074578063964bc33f146100c5578063a79123a9146100e7575b600080fd5b34801561008057600080fd5b506100a87f000000000000000000000000000000000000000000000000000000000000000081565b6040516001600160a01b0390911681526020015b60405180910390f35b3480156100d157600080fd5b506100e56100e0366004610aa7565b6101fa565b005b3480156100f357600080fd5b506100e5610102366004610ac0565b6103cd565b34801561011357600080fd5b5061011d60015481565b6040519081526020016100bc565b6100e5610139366004610ac0565b610767565b34801561014a57600080fd5b50610194610159366004610aa7565b60026020819052600091825260409091208054600182015492820154600383015460049093015491936001600160a01b031692909160ff1685565b604080519586526001600160a01b0390941660208601529284019190915260608301521515608082015260a0016100bc565b3480156101d257600080fd5b506100a87f000000000000000000000000000000000000000000000000000000000000000081565b610202610a7d565b6000818152600260205260409020600481015460ff166102545760405162461bcd60e51b8152602060048201526008602482015267496e61637469766560c01b60448201526064015b60405180910390fd5b60018101546001600160a01b0316331461029d5760405162461bcd60e51b815260206004820152600a6024820152692737ba1039b2b63632b960b11b604482015260640161024b565b6004818101805460ff1916905560028201805460009182905560405163a9059cbb60e01b8152339381019390935260248301819052917f00000000000000000000000000000000000000000000000000000000000000006001600160a01b03169063a9059cbb906044016020604051808303816000875af1158015610326573d6000803e3d6000fd5b505050506040513d601f19601f8201168201806040525081019061034a9190610ae2565b9050806103925760405162461bcd60e51b815260206004820152601660248201527514995d1d5c9b881d1c985b9cd9995c8819985a5b195960521b604482015260640161024b565b60405184907fc40fdc946efe80191c467f60727c4abc08254a056035d467a4516a86005ab76390600090a25050506103ca6001600055565b50565b6103d5610a7d565b600082116104125760405162461bcd60e51b815260206004820152600a6024820152690416d6f756e74203d20360b41b604482015260640161024b565b6000811161044e5760405162461bcd60e51b815260206004820152600960248201526805072696365203d20360bc1b604482015260640161024b565b7f00000000000000000000000000000000000000000000000000000000000000006001600160a01b03166391d148547f00000000000000000000000000000000000000000000000000000000000000006001600160a01b031663cb3e1fe76040518163ffffffff1660e01b8152600401602060405180830381865afa1580156104db573d6000803e3d6000fd5b505050506040513d601f19601f820116820180604052508101906104ff9190610b0b565b6040516001600160e01b031960e084901b1681526004810191909152336024820152604401602060405180830381865afa158015610541573d6000803e3d6000fd5b505050506040513d601f19601f820116820180604052508101906105659190610ae2565b6105a15760405162461bcd60e51b815260206004820152600d60248201526c27b7363c90383937b23ab1b2b960991b604482015260640161024b565b6040516323b872dd60e01b8152336004820152306024820152604481018390526000907f00000000000000000000000000000000000000000000000000000000000000006001600160a01b0316906323b872dd906064016020604051808303816000875af1158015610617573d6000803e3d6000fd5b505050506040513d601f19601f8201168201806040525081019061063b9190610ae2565b9050806106805760405162461bcd60e51b8152602060048201526013602482015272151c985b9cd9995c919c9bdb4819985a5b1959606a1b604482015260640161024b565b600180546000918261069183610b3a565b909155506040805160a0810182528281523360208083018281528385018a8152606085018a815260016080870181815260008a81526002808852908a902098518955945191880180546001600160a01b0319166001600160a01b039093169290921790915591519286019290925590516003850155516004909301805460ff191693151593909317909255825188815291820187905292935083917f98868c46d49b200d82c273c9f28d73265826ca6567690262736450563dfff64c910160405180910390a350506107636001600055565b5050565b61076f610a7d565b6000828152600260205260409020600481015460ff166107bc5760405162461bcd60e51b8152602060048201526008602482015267496e61637469766560c01b604482015260640161024b565b6000821180156107d0575080600201548211155b61080d5760405162461bcd60e51b815260206004820152600e60248201526d125b9d985b1a5908185b5bdd5b9d60921b604482015260640161024b565b600081600301548361081f9190610b53565b90508034146108655760405162461bcd60e51b8152602060048201526012602482015271125b98dbdc9c9958dd08115512081cd95b9d60721b604482015260640161024b565b828260020160008282546108799190610b70565b909155505060028201546000036108c25760048201805460ff1916905560405184907fc40fdc946efe80191c467f60727c4abc08254a056035d467a4516a86005ab76390600090a25b60018201546040516000916001600160a01b03169083908381818185875af1925050503d8060008114610911576040519150601f19603f3d011682016040523d82523d6000602084013e610916565b606091505b50509050806109575760405162461bcd60e51b815260206004820152600d60248201526c14185e5bdd5d0819985a5b1959609a1b604482015260640161024b565b60405163a9059cbb60e01b8152336004820152602481018590526000907f00000000000000000000000000000000000000000000000000000000000000006001600160a01b03169063a9059cbb906044016020604051808303816000875af11580156109c7573d6000803e3d6000fd5b505050506040513d601f19601f820116820180604052508101906109eb9190610ae2565b905080610a325760405162461bcd60e51b8152602060048201526015602482015274151bdad95b881d1c985b9cd9995c8819985a5b1959605a1b604482015260640161024b565b6040805186815260208101859052339188917f2d422c18b05e66a0b22c1c2b24e242e6c19cff65d89543692b3348f7f7ea18d4910160405180910390a3505050506107636001600055565b600260005403610aa057604051633ee5aeb560e01b815260040160405180910390fd5b6002600055565b600060208284031215610ab957600080fd5b5035919050565b60008060408385031215610ad357600080fd5b50508035926020909101359150565b600060208284031215610af457600080fd5b81518015158114610b0457600080fd5b9392505050565b600060208284031215610b1d57600080fd5b5051919050565b634e487b7160e01b600052601160045260246000fd5b600060018201610b4c57610b4c610b24565b5060010190565b8082028115828204841417610b6a57610b6a610b24565b92915050565b81810381811115610b6a57610b6a610b2456fea26469706673582212207fc6f805cd2d7e4383a015221c43cf4d0c49f3f077d4924e8146f9c7488ea50664736f6c63430008180033",
  "linkReferences": {},
  "deployedLinkReferences": {}
}